:060000000200540202059B
:03000B000200C32D
:100010000000E2FBEAF2802C0000E0FBEAF0802422
:10002000E6B50202EBF62200E2B50202EBF2220094
:10003000E0B50202EBF02230F6E0A88220F5D3EA28
:10004000C6F582228B822230F6E6A88220F5D9807E
:01005000CFE0
:1000AD00E4F508F509F50AF50BF50CF50DF50EF56A
:0600BD000FF510020051D6
:030051000203584F
:1000C300C0E0C007C006C005C004C0D075D000ACF6
:1000D30008AD09AE0AAF0B74012CF508E43DF50930
:1000E300E43EF50AE43FF50BD0D0D004D005D006AA
:1000F300D007D0E032C2AFAC08AD09AE0AAF0BD225
:10010300AF8C828D838EF0EF22438920758DFD7530
:100113009850D28E2285829910990280FB22AD825B
:10012300AE83AFF08D828E838FF0120500FC6018D2
:100133008C820DBD00010EC007C006C00512011858
:10014300D005D006D00780DC22120000020000D2C6
:1001530091D29012014CC29112014CC29022C291D1
:10016300D29012014CD29102014CAF827E00BE08A4
:1001730000501F8F05530580ED24FF9291D290C04C
:1001830007C00612014CD006D007C290EF2FFF0E16
:1001930080DCD291D29012014CC29022AF82C00770
:1001A30012015275824E12016DD0078F8212016DBA
:1001B30002016175823812019F75820C12019F75CD
:1001C300820102019FAD82AE83AFF08D828E838F59
:1001D300F0120500FC60188C820DBD00010EC007F3
:1001E300C006C00512019FD005D006D00780DC22CF
:1001F300E58270047F8080027FC0E5112FF58202C3
:10020300019FC020C0E0C0F0C082C083C007C00609
:10021300C005C004C003C002C001C000C0D075D077
:10022300001200F8AC82AD83E51070098C0C8D0DC3
:10023300751001800C7401B510078C0E8D0F7510AD
:1002430002D0D0D000D001D002D003D004D005D04A
:1002530006D007D083D082D0F0D0E0D02032AE8257
:10026300AF83C3EE942CEF9401504BAB21AC22AD82
:10027300238B828C838DF07420120498A37405124F
:100283000498A37480120498AB24AC25AD268B820A
:100293008C838DF07425120498A37405120498A31B
:1002A3007480120498AB27AC28AD298B828C838D84
:1002B300F07402020498C3EE9484EF9403504BADA0
:1002C30021AE22AF238D828E838FF0742712049880
:1002D300A37405120498A37480120498AD24AE2568
:1002E300AF268D828E838FF0742B120498A374052E
:1002F300120498A37480120498AD27AE28AF298DF9
:10030300828E838FF07405020498AD21AE22AF2351
:100313008D828E838FF0742D120498A374051204BA
:1003230098A37480120498AD24AE25AF268D828ED7
:10033300838FF07431120498A37405120498A37484
:1003430080120498AD27AE28AF298D828E838FF05B
:10035300740A020498758901758CFC758A66D2A9A2
:10036300D28CD288D2A812010C1201B6D2AF751169
:10037300007582001201F390053375F0801201C8F5
:100383007402B510FBE50EC3950CFEE50F950DFF4A
:100393007521127522007523407524157525007586
:1003A30026407527187528007529408E828F83C0D3
:1003B30007C00612026175820112019F7511007553
:1003C30082001201F38512828513838514F01201D2
:1003D300C87511007582011201F390054275F08012
:1003E300120121D006D0077521647522008E828FF9
:1003F30083C007C00612046F75210A752200120418
:10040300B3AC8274302CF582120118D006D0077574
:10041300210A7522008E828F83C007C00612046FE3
:1004230075210A7522001204B3AC8274302CF58254
:10043300120118D006D00775210A7522008E828F0B
:10044300831204B3AE8274302EF5821201187582C2
:100453000A12011890054875F0801201C890054BE7
:0C04630075F0801201C8751000020383C0
:100520004E4541520048004D4944004D004641525D
:10053000004C0057616974696E672070756C736553
:0F05400073004741503A2000473A002020200026
:10046F007A10E4FBFCE58225E0F582E58333F58322
:10047F00EB33FBEC33FCEB9521F5F0EC95224006CA
:09048F00FCABF0438201DADD222E
:06008300E478FFF6D8FD51
:100061007900E94400601B7A0090054F780175A082
:1000710000E493F2A308B8000205A0D9F4DAF275FE
:02008100A0FFDE
:1004980020F71130F6138883A88220F509F6A8837F
:1004A8007583002280FEF280F5F022E52145226066
:1004B800467A01E52125E0F521E522334012F522AF
:1004C800E5829521E583952240030A80E6C3E5226B
:1004D80013F522E52113F521C3E5829521F5F0E511
:1004E8008395224005F58385F082C3E52213F52222
:0804F800E52113F521DAE122F0
:100089007800E84400600A790175A000E4F309D812
:10009900FC7800E84400600C7900900001E4F0A3CA
:0400A900D8FCD9FAAC
:0D00540075812912051CE582600302005130
:1005000020F71430F6148883A88220F507E6A88324
:1005100075830022E280F7E49322E02275820022B4
:00000001FF
